:100000000C94F3020C941B030C941B030C941B0321
:100010000C941B030C941B030C941B030C941B03E8
:100020000C941B030C941B030C941B030C941B03D8
:100030000C941B030C941B030C941B030C941B03C8
:100040000C9409200C941B030C941B030C941B03AD
:100050000C941B030C941B030C941B030C941B03A8
:100060000C941B030C941B030000000025002800C7
:100070002B0000000008000201000003040700003C
:1000800000000000000000000000240027002A00FB
:10009000010204081020408001020408102001021F
:1000A00004081020040404040404040402020202EC
:1000B00002020303030303034602000000FF0800DB
:1000C000053E5B4F5B3E053E6B4F6B3E051C3E7C29
:1000D0003E1C05183C7E3C18051C577D571C051C12
:1000E0005E7F5E1C0400183C1805FFE7C3E7FF04B1
:1000F0000018241805FFE7DBE7FF0530483A060E35
:1001000005262979292605407F05050705407F0535
:10011000253F055A3CE73C5A057F3E1C1C08050854
:100120001C1C3E7F0514227F221405FFFFFFFFFFEA
:1001300005F0F0F0F0F003FFFFFF05000000FFFF07
:10014000050F0F0F0F0F0508047E04080510207E11
:1001500020100508082A1C0805081C2A080805AAFA
:10016000005500AA05AA55AA55AA0530383E3830D0
:1001700005060E3E0E06020000015F03070007059C
:10018000147F147F1405444AFF4A32056313086440
:10019000630536494936480107033E414103414161
:1001A0003E05082A1C2A080508083E08080260E0E7
:1001B0000408080808026060056010080403053E92
:1001C0005149453E03427F40057149494946054131
:1001D00049494936050F0808087F054F4949493103
:1001E000053E4949493005030101017F053649496A
:1001F000493605064949493E026C6C026CEC03081D
:1002000014220414141414032214080501590909B2
:1002100006053E415D594E057E0909097E057F4967
:10022000494936053E41414141057F4141413E0535
:100230007F49494941057F09090901053E41414975
:1002400079057F0808087F03417F4105304141411E
:100250003F057F08142241057F40404040057F0252
:100260000C027F057F0408107F053E4141413E0599
:100270007F09090906053E4141617E057F0919296B
:10028000460546494949310501017F0101053F40C5
:1002900040403F051F2040201F053F4038403F059C
:1002A0006314081463050304780403056151494588
:1002B00043037F41410503040810600341417F056A
:1002C00004020102040480808080030102040438D7
:1002D00044447C047F44443804384444440438444F
:1002E000447F043854545804047E05010418A4A41F
:1002F0007C047F040478017D0384857C047F1028BE
:1003000044017F057C04780478047C040478043874
:1003100044443804FC24241804182424FC047C04D9
:100320000408045854543403047F04043C40407CC3
:10033000041C20407C053C4030403C046C10106C98
:10034000041CA0A07C046454544C040836414101B0
:100350007F04414136080402010201057F41414109
:100360007F053E55555541053844443844057C2A9F
:100370002A3E14057E0202060605027E027E020562
:100380006355494163053844443C0405407E201EC2
:10039000200506027E0202086313086463006060A1
:1003A000052A2A2A2A2A03514A4403444A510500AD
:1003B00000FF010303E080FF0536123624360302F6
:1003C0000502021818021010053040FF0101041F39
:1003D00001011E000000000901017F017F020C02E3
:1003E0007F0000000000000100017D0418247E242D
:1003F00004447E454105221C141C2205012A7C2A46
:10040000010177044E55553903020002077E81BD74
:10041000A5A5817E0326292F0508142A1422040885
:1004200008081803080808077E81BD95A9817E0584
:1004300001010101010302050203242E2403191501
:10044000120315150A02020104F820407805060976
:100450007F017F021818040080A0C003121F100340
:100460002629260522142A140808402F1008041EE5
:10047000117C08402F10080462554C0915553F1097
:1004800008041E117C053048484D400578151614A7
:1004900078057814161578057A1514157A057816E6
:1004A000151679057815141578057814151478073C
:1004B0007E09097F494941059EA1612121057C549E
:1004C000554644057C54564544057E5554454605DD
:1004D0007C5554454403457E4403447E4503467D94
:1004E0004603457C4505087F49413E057C0A1122AB
:1004F0007D053844454638053844464538053A4573
:1005000044453A0538464546390538454445380599
:100510002214081422057C625A463E053C404142A2
:100520003C053C4042413C053C4241423C053C418B
:1005300040413C0502047A0502043F12120C057E7C
:1005400049494E30043845467C043844467D0438D9
:1005500046457E043A45467D043845447D04304A8C
:100560004D7A0720545438545458049CA2622204F3
:10057000385556580438545659043856555A043884
:1005800055545902017A027A010302790203027872
:100590000204304B4B3C047A090A710430494A305A
:1005A0000430484A3104304A49320432494A31045D
:1005B000394444390508082A08080438544C3804DA
:1005C000384142780438404279043842417A043A4A
:1005D00040407A0418A0A27904FC282810041AA02C
:1005E000A07A6E22872211241FBECFEFD8E0DEBF93
:1005F000CDBF11E0A0E0B1E0E0E7FAE402C0059071
:100600000D92AE31B107D9F721E0AEE1B1E001C002
:100610001D92A036B207E1F712E0C2EFD2E004C0AB
:100620002197FE010E94F023C13FD107C9F70E9424
:1006300053200C942B250C940000829590E09C0193
:1006400035952795359527952373880F991F880F22
:10065000991F8C7C282B30E0C9019595879585756D
:10066000220F331F2A7A822B0895CF93DF93262FF0
:100670002695382F70E0680F791FFC018E2F831BA1
:10068000821750F4819161507109DB019C91EF0157
:10069000219798838C93F2CFDF91CF910895482FC3
:1006A000FC018E2F841B8617E0F4219130E0C901F4
:1006B000959587958575220F331F2A7A822B90E0B6
:1006C0009C0135952795359527952373880F991F9C
:1006D000880F991F8C7C822B8295DF0111978C9358
:1006E000E0CF089590E0FC01EE58FF4F2491FC010B
:1006F000E057FF4F3491FC01EC55FF4FE491EE239E
:10070000C9F0222339F0233001F1A8F4213019F186
:10071000223029F1F0E0EE0FFF1FE859FF4FA591BD
:10072000B4918FB7F894EC91611126C030953E23B7
:100730003C938FBF08952730A9F02830C9F02430AA
:1007400049F7809180008F7D03C0809180008F7772
:1007500080938000DFCF84B58F7784BDDBCF84B5F5
:100760008F7DFBCF8091B0008F778093B000D2CF88
:100770008091B0008F7DF9CF3E2BDACFCF93DF93FE
:1007800090E0FC01E057FF4F24918C559F4FFC01F6
:1007900084918823D1F090E0880F991FFC01EA57DB
:1007A000FF4FA591B491FC01E859FF4FC591D49139
:1007B00061110EC09FB7F8948C91E22FE0958E23C3
:1007C0008C932881E223E8839FBFDF91CF91089526
:1007D0008FB7F894EC91E22BEC938FBFF6CF3FB735
:1007E000F8948091300190913101A0913201B09143
:1007F000330126B5A89B05C02F3F19F00196A11D16
:10080000B11D3FBFBA2FA92F982F8827BC01CD015A
:10081000620F711D811D911D42E0660F771F881FB9
:10082000991F4A95D1F70895CF92DF92EF92FF92E8
:100830001F93CF93DF93DC0156961C92569788E066
:1008400057968C93579758961C9258975A961C9285
:100850001E9259978FEF90E05C969C938E935B97D6
:100860005E961C921E925D9754968D919C91559721
:10087000009709F478C0FC012491263409F031C0B6
:100880003196E491E13009F453C022E030E0E230E7
:1008900021F5FC01329624913196E49130E0322F1B
:1008A00022272E0F311D5A963C932E935997FC0107
:1008B000349624913196E49130E0322F22272E0F86
:1008C000311D5C963C932E935B97FC013696E49128
:1008D0005796EC93579727E030E05E963C932E9323
:1008E0005D975D96CD90DC905E97F12CE12C59964A
:1008F0002D913C915A975B96CD91DC915C9710E0DD
:10090000C217D30770F1FC01EC0DFD1D44911417C3
:1009100008F4142F50E070E060E04F5F5F4F6F4FBE
:100920007F4FC40ED51EE61EF71E2F5F3F4FE8CF48
:10093000FC013296E491F0E05A96FC93EE935997BD
:10094000FC013396E491F0E05C96FC93EE935B97A8
:10095000FC013496E4915796EC93579725E030E0EC
:10096000BCCF58961C93DF91CF911F91FF90EF90D1
:10097000DF90CF900895FC018185681738F52285B6
:10098000338579E0679F200D311D1124848150E06B
:100990009381992371F0882331F087E090E0FC0186
:1009A000E41BF50BAF01240F351FF90180810C9476
:1009B0001D03882331F087E090E0BC01641B750BB8
:1009C000AB01240F351FF9018081089580E008955F
:1009D0008F929F92AF92BF92CF92DF92EF92FF924F
:1009E000CF93DF93FC01242F30E08381882309F427
:1009F00047C087E090E0821B930B91E001C0990F04
:100A00008A95EAF78185681708F040C0228533850A
:100A1000A90189E0689F400D511D1124BA01E481AC
:100A200030E020E080E0A7E0B0E0C12CD12C7601DE
:100A3000C394F22FAD01421B530BE11101C0A90178
:100A4000460F571FEA014881492351F046015701DB
:100A500004C0880C991CAA1CBB1CFA95D2F78829E3
:100A60002F5F3F4F2830310521F7DF91CF91FF9065
:100A7000EF90DF90CF90BF90AF909F908F900895B0
:100A800091E001C0990F4A95EAF7BCCF80E0EDCF25
:100A9000FC01228121110C94E8040C94BB04462F24
:100AA00047706695669566950C944805CF93DF93DD
:100AB00000D0CDB7DEB769831A82DC01ED91FC91DD
:100AC0000084F185E02DBE016F5F7F4F099581E0C5
:100AD00090E00F900F90DF91CF910895089590E0EE
:100AE00080E00895FC01828D968DA4A5B5A591FDA9
:100AF00015C0882381F0868997890597A9F481E03C
:100B000022A533A52A173B0709F080E086A7119795
:100B1000B5A7A4A70895808D918DEFCF882379F094
:100B200086899789059759F7CD01019695A784A7DE
:100B300081E011969C91911180E086A70895808DA7
:100B4000918DF0CFFC01848995898230910591F4D3
:100B50002189328934A323A337A326A382309105A8
:100B600061F42785308931A720A7029749F08FEFDC
:100B700085A3089527853089EDCF21893289F3CF68
:100B800081E0F6CFFC01418550E0440F551F70E035
:100B900060E0848595850C942425CF92DF92EF92B6
:100BA000FF920F931F93CF93DF93EC0188858823E7
:100BB000A1F080912A01882361F08FB7F894909179
:100BC0002A01913041F59DB3909329019DB39DBBBE
:100BD0008FBF80E58CBD81E08DBD60E08F810E947C
:100BE000720388858823D1F030E020E0898590E089
:100BF000880F991F28173907C8F5EC85FD85E20F86
:100C0000F31F80818EBD00000DB407FEFDCF8EB5B1
:100C10002F5F3F4FEBCF80932901DBCF10E000E047
:100C2000898590E0880F991F08171907F8F4EC855B
:100C3000FD85E00FF11FE080DE80CD8088E0F82E9A
:100C40006E2D661F6627661F8C2D0E947203EE0CA8
:100C500061E08D2D0E94720360E08D2D0E94720371
:100C6000FA94F110EDCF0F5F1F4FDACF61E08F8163
:100C70000E9472038885882371F080912A0188235D
:100C800051F09FB7F89420912A01809129012130D9
:100C900059F48DBB9FBFDF91CF911F910F91FF90B2
:100CA000EF90DF90CF9008958FBFF5CFBF92CF9296
:100CB000DF92EF92FF920F931F93CF93DF93FC018C
:100CC0002185621708F04EC0EC01F9E06F9F7001BA
:100CD0001124D12CC12C062F10E0BB24B394BC0CE2
:100CE000EA85FB85EE0DFF1D808590E00C2C02C08F
:100CF000959587950A94E2F780FF27C0CE010E9460
:100D0000C20589858150990B801B910B880F991F13
:100D10002C853D85820F931FFC01B082EA85FB85FF
:100D2000EE0DFF1DEC0DFD1D408189858150990B55
:100D3000801B910B880F991F2C853D85820F931F77
:100D4000FC014183CE010E94CD05FFEFCF1ADF0ADF
:100D500088E0C816D10409F68A859B85E80EF91E3D
:100D6000F7011086DF91CF911F910F91FF90EF90C7
:100D7000DF90CF90BF9008950F931F93CF93DF9391
:100D8000EC01162F042F822F9B8191110E941D03CD
:100D900099E0199F90011124AA85BB85A20FB31F6A
:100DA000602F70E09C8147E050E0461B570B91118B
:100DB00001C0AB01A40FB51F8C93EA85FB85E20F40
:100DC000F31F20858C818823F1F047E050E0461B1B
:100DD000570B81E090E0A0E0B0E004C0880F991FBD
:100DE000AA1FBB1F4A95D2F7822B80878A89882346
:100DF00021F0612FCE010E94560681E0DF91CF9154
:100E00001F910F91089581E090E0A0E0B0E004C050
:100E1000880F991FAA1FBB1F0A95D2F7E5CF9F9293
:100E2000AF92BF92CF92DF92EF92FF920F931F93F8
:100E3000CF93DF93FC0189E0689FE001112481E0FA
:100E400090E0A0E0B0E06C017D01042E04C0CC0C69
:100E5000DD1CEE1CFF1C0A94D2F7BC2C7C2D709577
:100E600007E010E0041B110904C0880F991FAA1F96
:100E7000BB1F0A95D2F7A82E382F309590E080E05E
:100E8000022F10E027E0E22EF12CAC01A285B38501
:100E9000AC0FBD1F248193806801082E02C0D59439
:100EA000C7940A94E2F7C0FE2AC0222319F0A701D2
:100EB000481B590BA40FB51F2C914B2D91104A2D97
:100EC000242B2C93019688309105F9F68285938521
:100ED000C80FD91F8FEF88878289882319F0CF0127
:100EE0000E94560681E0DF91CF911F910F91FF90F4
:100EF000EF90DF90CF90BF90AF909F900895222306
:100F000019F0A701481B590BA40FB51F2C91472FAF
:100F10009110432F2423D5CFFC01528131855523D5
:100F200021F0631730F40C940F07631710F40C943E
:100F3000BC0680E00895242F462F477033E0769555
:100F400067953A95E1F70C948C07FC015281318545
:100F5000552331F0631750F4483041F00C94BC062F
:100F6000631720F4483011F00C940F0780E00895C7
:100F7000CF92DF92EF92FF920F931F93CF93DF9365
:100F8000FC01722F82815185882309F45DC06517A9
:100F900008F0BEC0283009F4BBC009E0609F7001B2
:100FA0001124828593858E0D9F1D50E0A22FB0E005
:100FB00024812223B9F127E030E0E901C41BD50BDD
:100FC000AE012A1B3B0B480F591FEA014881820FD3
:100FD000931FEC01488382859385E701C80FD91FD1
:100FE00028858481882301F147E050E04A1B5B0B90
:100FF00081E090E0A0E0B0E004C0880F991FAA1F34
:10100000BB1F4A95D2F7822B88878289811118C02D
:1010100081E0DF91CF911F910F91FF90EF90DF90D2
:10102000CF9008959D01CFCF81E090E0A0E0B0E0A7
:1010300004C0880F991FAA1FBB1F7A95D2F7E3CF70
:10104000CF010E945606E4CFA42FB0E093819923EC
:1010500009F44FC027E030E02A1B3B0B91E001C0B0
:10106000990F2A95EAF76517A0F6783091F2D9E042
:101070006D9FA001112401E010E020E030E0680144
:101080007901072E04C0CC0CDD1CEE1CFF1C0A9459
:10109000D2F7DC2DCC2DC095A7E0B0E0A71BB1099D
:1010A00004C0000F111F221F331FAA95D2F7F02E84
:1010B000009530E020E0A285B385A40FB51FA20FF4
:1010C000B31F8C917381182F1923D9F0711117C098
:1010D0007D2F872B8C932F5F3F4F2830310559F799
:1010E00082859385480F591F8FEFDA0118968C93EC
:1010F0008CCF91E001C0990F4A95EAF7B4CF7F2DCC
:10110000E8CF711103C07C2F8723E4CF702FFCCF71
:1011100080E07FCF8F929F92AF92BF92CF92DF926B
:10112000FF920F931F93CF93DF93CDB7DEB728972E
:101130000FB6F894DEBF0FBECDBF4830510508F0A2
:10114000CBC1FA01F62E8C01E855F74F0C94F02331
:10115000B008010938097209AD09F209360A560AC0
:1011600029E0629FA0011124DC0112968C91882352
:10117000C9F130E020E0D8011A96ED91FC911B975F
:10118000E40FF51FE20FF31F808113969C919923C2
:1011900039F190E09595879580832F5F3F4F2830F8
:1011A000310549F7D8011A96ED91FC91B9E0FB9E03
:1011B000E00DF11D11248FEF808781E028960FB696
:1011C000F894DEBF0FBECDBFDF91CF911F910F917D
:1011D000FF90DF90CF90BF90AF909F908F90089539
:1011E000880FDACF87E090E0D8011A96ED91FC9154
:1011F000E40FF51FE80FF91F208121830197A0F765
:10120000D1CFE9E06E9F90011124DC0112968C9100
:101210008823E1F050E040E0D8011A96ED91FC916E
:101220001B97E20FF31FE40FF51F808113969C912B
:10123000992341F0880F80834F5F5F4F48305105FD
:1012400059F7B0CF90E095958795F5CF81E090E084
:10125000D8011A96ED91FC91E20FF31FE80FF91FE8
:1012600040813197408301968830910589F79ACF64
:10127000FC01D28083898823F9F040E0C801DD2099
:10128000C1F00E94BB048983DD20C1F020E0DD2491
:10129000D394D20E4D2D6F2DC8010E94B8072D2D6D
:1012A0002730A9F7298147E06F2DC8010E94A507C3
:1012B00079CF0E94E804E7CF1982E6CFF9E0FF9EDC
:1012C000A001112487E090E0D8011A96ED91FC91DD
:1012D000E40FF51FE80FF91F2081220F20830197EB
:1012E00098F7E0CFFC01D28083898823D9F047E0CA
:1012F000C801DD20A1F00E94BB048983DD20A1F09C
:1013000028E0DD24DA94D20E4D2D6F2DC8010E9405
:10131000B8072D2DD110F5CF298140E0C5CF0E940F
:10132000E804EBCF1982EACFF9E0FF9EA001112477
:1013300030E020E0D8011A96ED91FC91E40FF51F02
:10134000E20FF31F808190E09595879580832F5F52
:101350003F4F2830310571F7DFCFB9E06B9F600157
:101360001124FC0182818823C1F0912C812CD801A9
:101370001A96AD90BC90AC0CBD1CA80CB91CF50124
:1013800080810E941D03D5018C93BFEF8B1A9B0AAD
:10139000E8E08E16910459F705CF30E020E047E0F1
:1013A00050E0D8011A968D919C918C0D9D1DFC01E9
:1013B000E20FF31FB080BA01621B730B860F971FF9
:1013C000DC018C918083D8011A96ED91FC91EC0D93
:1013D000FD1DE60FF71FB0822F5F3F4F2430310510
:1013E00001F7E0CEB9E06B9F40011124FC0182813E
:1013F000882329F130E020E047E050E0D8011A9638
:101400008D919C91880D991DFC01E20FF31FD080F6
:10141000BA01621B730B860F971FDC018C918083CE
:10142000D8011A96ED91FC91E80DF91DE60FF71F12
:10143000D0822F5F3F4F2430310501F7B3CEB12C5E
:10144000A12CF801C284D384C80CD91CCA0CDB1CA3
:10145000D6018C910E941D03F6018083FFEFAF1A25
:10146000BF0A28E0A216B10461F79CCECE01019616
:101470005C014C0187E0D82E4D2D6F2DC8010E94D4
:101480004805D4018D934D01DA94BFEFDB12F4CF00
:10149000D12CF50121915F014D2D6F2DC8010E94C6
:1014A000A507D394F8E0DF12F4CF7CCE29E0629F49
:1014B000A001112490E080E0D8011A96ED91FC91F2
:1014C000E40FF51FE80FF91F208120952083019676
:1014D0008830910589F766CE80E070CECF92DF929A
:1014E000EF92FF920F931F93CF93DF93EC01DD24D4
:1014F000D394F12CE12C01E010E0B9E0CB2ECE0129
:101500000E94C20598010E2C02C0220F331F0A94BC
:10151000E2F7E0E090E08985E81798F5EC9DA001FE
:101520001124AA85BB85A40FB51F18966C9170E095
:1015300062237323672B19F16E2F70E08150990B92
:10154000861B970B880F991FAC85BD85A80FB91F07
:10155000DC92AA85BB85A40FB51FAE0DBF1DFC9103
:1015600089858150990B861B970B880F991F4C8595
:101570005D85840F951FDC011196FC9391E0EF5F70
:10158000CACF992319F0CE010E94CD05BFEFEB1A07
:10159000FB0AD39488E0E816F10409F0B0CF80E0AC
:1015A00099E02985821748F4EA85FB85899FE00D3B
:1015B000F11D112410868F5FF4CFDF91CF911F9121
:1015C0000F91FF90EF90DF90CF900895CF93DF932E
:1015D000C9E078E05FEF4617B0F06C9F90011124EE
:1015E000FC01A285B385A20FB31FFD01D72F119275
:1015F000DA95E9F7DC011A96ED91FC91E20FF31F01
:1016000050876F5FE8CFFC012289222321F0DF9110
:10161000CF910C946E0ADF91CF9108956F927F92D3
:101620008F929F92AF92BF92CF92DF92EF92FF92F2
:101630000F931F93CF93DF93CDB7DEB729970FB6E4
:10164000F894DEBF0FBECDBF8C01E62EF42E5901FB
:10165000461708F43DC1DC015296DC905297529631
:101660001C922830310508F033C1F901E65CF44FD3
:101670000C94F0238D0B090C5F0C5F0C420B5F0C7C
:101680005F0C5F0C642F70E0AE2CB12C4B018A18FC
:101690009B0897FE03C0EFEF8E1A9E0A95948794DD
:1016A000712C29E0C22E472D50E0481559050CF049
:1016B000FCC0F80122853385FA01EA0DFB1DCE9EA0
:1016C000C001CF9E900D1124820F931FFC01DE01FB
:1016D00011966C2C01900D926A94E1F7FB01E41BCA
:1016E000F50BCE9EA001CF9E500D1124F901E40F01
:1016F000F51FDC018C2D01900D928A95E1F7F80120
:10170000A285B385A40FB51FFE0131968C2D0190E3
:101710000D928A95E1F77394C6CFDC0153968C91B4
:10172000882341F1642F660F660F660F695FC80159
:101730000E944F05C82EAE2CB12C8F2D0F2C000C03
:10174000990B8A159B0564F150E040E06F2DC801AC
:101750000E948A0899249A949F0C47E0692DC80139
:101760000E944805282F40E06F2DC8010E948C0779
:10177000F92CE3CFF801A088B188A114B10471F06D
:10178000642F660F660F660F695FC8010E944F05E0
:10179000482F70E060E08F2DF5010995C12CCBCF6B
:1017A000D8011E96ED91FC911F97309749F0539602
:1017B0008C91811105C070E060E08E2D0995C82ED6
:1017C000B50183E0660F771F8A95E1F74C2DC801BC
:1017D0000E949B07D8015296DC92DD2009F47AC062
:1017E000C8010E946E0A8D2D29960FB6F894DEBFAF
:1017F0000FBECDBFDF91CF911F910F91FF90EF9062
:10180000DF90CF90BF90AF909F908F907F906F9020
:101810000895FC0183898823A9F1660F660F660F7E
:10182000C8010E944F05C82E41E050E06E2DC8014E
:101830000E948A08BB24B394BE0C40E06B2DC80103
:101840000E944805282F47E06E2DC8010E948C0792
:10185000EB2CFB1448F7D8011E96ED91FC911F97D5
:10186000309749F053968C91811105C061E070E08A
:101870008F2D0995C82EB8E0FB9EB0011124695F39
:101880007F4FA4CFA088B188A114B10461F0660F86
:10189000660F660FC8010E944F05482F61E070E097
:1018A0008E2DF5010995C12CBFCF44E050E06E2D7F
:1018B000C8010E948A08E394FE14B8F78BCFA501F3
:1018C0006E2DC8010E948A08E394FE14C0F782CFEF
:1018D000D12C89CFDD24D39486CFCF93DF93EC0135
:1018E0004AA169A1461720F0888199810E94E60AE1
:1018F0008B8D882351F027E030E04AA169A18881CF
:101900009981DF91CF910C940E0BDF91CF910895C7
:10191000CF92DF92EF92FF920F931F93CF93DF93BB
:10192000EC01D62EC42E790180E04617E0F02A3073
:10193000310508F069C0CE010E94C20592E0E916A7
:10194000F10409F453C0C0F4E114F10429F1F1E009
:10195000EF16F10409F443C0D394CD1478F7CE0107
:101960000E94CD0581E0DF91CF911F910F91FF90F3
:10197000EF90DF90CF90089583E0E816F104E9F14D
:1019800094E0E916F10441F781E00115110509F42D
:1019900080E0819599E006C081E00115110509F00C
:1019A00080E09CE04D2D50E029852150330B241B15
:1019B000350B220F331F6C857D85260F371FF901EC
:1019C000908329852150330B241B350B220F331FA5
:1019D0004C855D85240F351FF9018183BDCF802F94
:1019E000083011050CF087E09BE0DCCF802F003140
:1019F00011050CF08FE09AE0D5CF81E001151105BB
:101A000009F480E09FE0CECF81E00130110509F0BC
:101A100080E0FBE0EF16F10449F08A8B01301105FC
:101A200009F0A0CFCE010E946E0A9CCF8B8B9ACF7B
:101A30000F931F93FC01678F062F10E022E030E028
:101A400042A161A1808191810E94880C1F910F9118
:101A500008950F931F939B018A01FC01418541501A
:101A600060E00E94880C1F910F9108951F93CF93FF
:101A7000DF93EC01A881B98158961C918CA9180FAD
:101A800089A9811768F48AA99BA9009711F00E947F
:101A9000922419AB812F90E00E94F6239BAB8AAB76
:101AA000DF91CF911F910895CF92DF92EF92FF9235
:101AB0000F931F93CF93DF937C016B01EA01CA015F
:101AC00001960E94F6238C010097F1F0AE01B60159
:101AD0000E941B25F801EC0FFD1F1082D701ED912C
:101AE000FC910084F185E02DB801C7010995C8017A
:101AF0000E949224CE01DF91CF911F910F91FF9010
:101B0000EF90DF90CF900895D0E0C0E0F3CFCF9278
:101B1000DF92EF92FF920F931F93CF936C017B01A3
:101B2000C42F8901DC019F96ED91FC91309709F15A
:101B3000808191818E159F05C1F40280F381E02D93
:101B400080818C1708F4C82F4C2F50E0BF016F5FC5
:101B50007F4FC8010E941B258C2FCF911F910F91A1
:101B6000FF90EF90DF90CF9008950480F581E02DF5
:101B7000DDCFF6018081918120AD31ADDC0154963D
:101B80004D915C912417350751F02115310511F461
:101B900028EB30E0FC01358B248B0E9414040115E6
:101BA000110509F448C0D6012D913C91F901858DAC
:101BB000968DB0E0A0E0418D528DE416F506A0F1BF
:101BC000638D748D6E157F0578F164897589FB01CD
:101BD000E80FF91FE416F50659F0E4918E0F911DF8
:101BE000A11DB11D0196A11DB11D4F5F5F4FEFCF2C
:101BF0004491C41710F50196A11DB11DA801801BC9
:101C0000910B642F601B6C1708F0A6CFBC01640F0A
:101C1000751FD9015496ED91FC91E60FF71FE491E1
:101C2000DA01ED93AD01EDCF4C2F50E070E060E0B4
:101C3000C8010E942425C0E08FCFC491DCCF1F9340
:101C4000CF93DF93EC01142F2AA93BA949A90E9445
:101C5000870D112389F0882379F090E02CA9921741
:101C600058F429A9821730F4EAA9FBA9E80FF11D5D
:101C700010828F5F9F5FF2CFDF91CF911F91089508
:101C80000F931F93CF93DF93EC018B01ECA5FDA580
:101C900041E08181811101C040E0608170E0CE01AE
:101CA0000E941F0EF80180832E8D9A8D21FD10C099
:101CB000992359F02E893F892530310581F4682F09
:101CC0008AA99BA90E9435030AC0288D398DF4CFBB
:101CD0009923B9F02E893F892530310581F78E8D02
:101CE00080FF06C0F80160818AA99BA90E944F036A
:101CF000CE010E94720581E0DF91CF911F910F917B
:101D00000895288D398DE8CF0F931F93CF93DF93DC
:101D1000EC01FB011082AAA5BBA5BDA7ACA710973B
:101D200019F08C91811108C081E08EA780E0DF91CD
:101D3000CF911F910F9108951EA68A8D9E8D91FDC2
:101D400010C0882359F08E899F89059781F40D90E2
:101D50000020E9F71297BDA7ACA709C0888D998D1F
:101D6000F4CF882331F18E899F89059781F7ACA53F
:101D7000BDA541E011968C911197811101C040E001
:101D80008B016C9170E0CE010E941F0EF8018083E0
:101D90002E8D9A8D21FD13C0992371F02E893F89D4
:101DA0002530310599F4682F8AA99BA90E94350333
:101DB0000DC0888D998DD9CF288D398DF1CF99237C
:101DC00099F02E893F892530310569F78E8D80FF86
:101DD00006C0F80160818AA99BA90E944F03CE0129
:101DE0000E94720581E0A3CF288D398DECCFCF9270
:101DF000DF92EF92FF920F931F93CF93DF93EC014B
:101E00000E946D0CCF84D8887E0185E3E80EF11C1A
:101E1000B701CE010E94840E1FAA1EAA86018989DD
:101E20009A89081719077CF18DA92EA93FA9821755
:101E3000130611F081110AC01DAA8EA5811104C0DC
:101E4000B701CE010E94400E1FAA1EAA8DA98823A9
:101E500031F3888199814EA95FA99A012F5F3F4F85
:101E6000EAA9FBA9E40FF51F4B8D3FAB2EAB442332
:101E700041F040814095B8010E949B070150110933
:101E8000CECF4081F8CFDF91CF911F910F91FF907E
:101E9000EF90DF90CF900895FF920F931F93CF9311
:101EA000DF93EC01F62E8B859C85442309F462C0F8
:101EB0008430910530F5019758F18B859C85059705
:101EC00021F483E090E09C878B87CE010E94F70E7F
:101ED0000BA11CA12DA188A599A5820F911D27FDFD
:101EE0009A9580179107E1F04B8D4195B801888153
:101EF00099810E949B078DA1080F111D87FD1A95DE
:101F0000E9CF0597D1F285E090E09C878B872CC0C4
:101F1000CE010E94A20583E090E09C878B87CDCF05
:101F2000FF2069F06BA17CA10617170741F04B8DCC
:101F300081E048274195888199810E949B078BA168
:101F40009CA12DA1022E000C330B48A559A5420FD0
:101F5000531F8417950721F445E050E05C874B87B9
:101F6000820F931F9CA38BA3DF91CF911F910F91A1
:101F7000FF9008958430910500F5019700F1CE019E
:101F80000E94F70E0EA11FA16BA17CA18DA1082EAE
:101F9000000C990B9B01280F391F20173107B9F04E
:101FA0004B8D4195B801888199810E949B078DA135
:101FB000080F111D87FD1A95E7CF059751F5CE0142
:101FC0000E94A20583E090E09C878B87D8CFFF20FA
:101FD00079F028A539A5820F931F6817790741F07A
:101FE0004B8D81E048274195888199810E949B070C
:101FF0008BA19CA12DA1022E000C330B48A559A545
:10200000420F531F8417950709F0AACF46E050E00E
:10201000A5CF86E090E079CFEF92FF920F931F93C8
:10202000CF93DF93EC01F62E8B859C85442309F436
:1020300049C084309105C8F40197F0F0CE010E94A8
:102040006D0CCE010E94F70E1BA1FF2031F193E031
:10205000E92EF12C173028F597014AA169A1888152
:1020600099810E940E0B1F5FF5CF059739F385E02C
:1020700090E09C878B871FC01CA21BA210E000E091
:102080002BE030E04AA169A1888199810E94880CE7
:1020900083E090E09C878B87D1CF82E0E82EF12C03
:1020A000D9CF8BA19CA125E030E08730910511F1BB
:1020B00001969CA38BA3DF91CF911F910F91FF906D
:1020C000EF90089584309105C0F40197C0F08881A5
:1020D000998122E030E0F11002C023E030E04AA113
:1020E00069A10E940E0B8BA19CA18730910501F77D
:1020F00026E030E03C872B87DBCF059739F41CA224
:102100001BA283E090E09C878B87E1CF86E090E084
:10211000B0CFCF92DF92EF92FF921F93CF93DF93D6
:10212000EC01D42E8B859C85662309F458C084303D
:102130009105A8F50197D0F1CE010E94F70E2BA1D1
:102140003CA12830310569F1EEA0FFA081E090E0CC
:1021500001C0880F2A95EAF7182FD11010952DA1EC
:1021600088A599A5820F911D27FD9A958E159F052B
:1021700049F1C880D9806E2DC6010E944F059B8D04
:10218000412F9923E9F04095482BB701C6010E94E1
:102190009B078DA1E80EF11C87FDFA94E0CF05970F
:1021A00059F285E090E09C878B8711C0CE010E9498
:1021B000A2051CA21BA283E090E09C878B87BCCF6A
:1021C0004823E3CF8BA19CA101969CA38BA3DF9115
:1021D000CF911F91FF90EF90DF90CF9008958430C2
:1021E000910598F5019798F1CE010E94F70E8BA109
:1021F0009CA110E097FD05C011E001C0110F8A9568
:10220000EAF7EEA0FFA0D11010952DA188A599A501
:10221000820F911D27FD9A958E159F0531F1C8807B
:10222000D9806E2DC6010E944F059B8D412F9923A9
:10223000D1F04095482BB701C6010E949B078DA1A4
:10224000E80EF11C87FDFA94E0CF0597C1F4CE01AA
:102250000E94A20587E090E09CA38BA383E090E01E
:102260009C878B87C1CF4823E6CF8BA19CA197FF8A
:1022700004C026E030E03C872B870197A6CF86E09C
:1022800090E091CFFF920F931F93CF93DF93EC01D8
:10229000F42E8B859C85662309F444C08430910517
:1022A00038F5019760F1CE010E94F70E2BA13CA1F9
:1022B00088A599A528173907E9F00EA11FA18DA1BE
:1022C000082E000C990B2BA13CA148A559A5480F3D
:1022D000591F4017510709F464C0F11018C00217C4
:1022E0001307C1F48DA1080F111D87FD1A95E7CFC3
:1022F0000597C9F285E090E09C878B8756C0CE0198
:102300000E94A20583E090E09C878B87CCCF0217C8
:10231000130741F74B8D4195B801888199810E943F
:102320009B07E0CF8430910500F5019700F1CE01C5
:102330000E94F70E0EA11FA148A559A58DA1082E38
:10234000000C990B2BA13CA1BA01680F791F6017F3
:10235000710701F1F11013C00217130799F48DA151
:10236000080F111D87FD1A95E7CF059721F5CE01BE
:102370000E94A20583E090E09C878B87D8CF02174C
:10238000130769F74B8D4195B801888199810E94A7
:102390009B07E5CF2417350724F446E050E05C871F
:1023A0004B87820F931F9CA38BA3DF91CF911F912B
:1023B0000F91FF90089586E090E09ECFEF92FF92FC
:1023C0000F931F93CF93DF93EC01162F8B859C8582
:1023D000442309F488C08330910528F00397B1F1B4
:1023E00085E090E02AC06F85788989899A899B0168
:1023F000281B390BC90137FD0196959587950196E4
:102400009CA38BA31123B9F04B8D11E0412741957B
:10241000681B790B888199810E949B074B8D41270E
:10242000419569897A898BA19CA1680F791F888160
:1024300099810E949B0783E090E09C878B87DF91C6
:10244000CF911F910F91FF90EF9008958BA19CA1C8
:1024500097FDC6CFCE010E94F70EF12CE12C6BA1A7
:102460007CA1E616F706C4F44B8D419569897A89FB
:102470006E0D7F1D888199810E949B074B8D419530
:102480006F8578896E197F09888199810E949B07E1
:102490003FEFE31AF30AE3CF615071097CA36BA30A
:1024A000112369F277FDCBCF4B8D11E04127419588
:1024B00089899A89680F791F888199810E949B0771
:1024C0004B8D412741956F8578898BA19CA1681B15
:1024D000790B88819981DF91CF911F910F91FF90A6
:1024E000EF900C949B078330910531F108F077C091
:1024F000019708F477C0CE010E946D0CCE010E94B6
:10250000F70E1CA21BA2112399F04B8D01E040276E
:1025100041956F857889888199810E949B074B8DB1
:102520004027419569897A89888199810E949B0712
:1025300083E090E09C878B872BA13CA16F857889F5
:1025400089899A89AB01481B590BCA0157FD01962D
:1025500095958795821793070CF444C04B8D419550
:10256000621B730B888199810E949B074B8D41955B
:1025700069897A898BA19CA1680F791F88819981CB
:102580000E949B072BA13CA12F5F3F4F3CA32BA395
:10259000112309F454CF6F85788989899A89AB0111
:1025A000481B590BCA0157FD0196959587958217CF
:1025B00093070CF444CF4B8D11E041274195621BEA
:1025C000730B888199810E949B074B8D4127419510
:1025D00069897A898BA19CA1680F791F7ACF0597A9
:1025E00009F489CF86E090E028CFCF92DF92EF9276
:1025F000FF920F931F93CF93DF93EC01162F8B85E0
:102600009C85442309F458C084309105B0F50197A6
:1026100008F43AC0CE010E94F70E2BA13CA190E035
:1026200080E0111102C08FEF90E02817390739F1CF
:10263000EEA0FFA02DA188A599A5820F911D27FDD1
:102640009A958E159F0581F10B8DC880D9806E2DCE
:10265000C6010E944F05011180954BA111114095B3
:10266000482301114095B701C6010E949B078DA127
:10267000E80EF11C87FDFA94DDCF059759F285E04D
:1026800090E09C878B8771C0CE010E94A2058FEFDE
:1026900090E0111102C081E090E09CA38BA383E045
:1026A00090E09C878B87B6CF8BA19CA1112309F466
:1026B00057C09595879557C08430910550F501977F
:1026C00050F1CE010E94F70EEEA0FFA02DA188A52B
:1026D00099A5820F911D27FD9A958E159F0559F199
:1026E0000B8DC880D9806E2DC6010E944F05011147
:1026F00080954BA111114095482301114095B701D8
:10270000C6010E949B078DA1E80EF11C87FDFA947B
:10271000DDCF0597C1F4CE010E94A20581E090E0D3
:10272000111102C08FEF90E09CA38BA383E090E097
:102730009C878B87C6CF8BA19CA1111107C00097E6
:1027400009F0B7CF06C086E090E09BCF8F3F9105A0
:1027500039F426E030E03C872B87112309F4A9CF18
:10276000880F991F81609CA38BA3DF91CF911F914C
:102770000F91FF90EF90DF90CF900895CF92DF926E
:10278000EF92FF920F931F93CF93DF93EC01F62EFE
:10279000C42E8B859C85222309F453C08430910577
:1027A00008F5019730F1CE010E946D0CCE010E9418
:1027B000F70E1BA1FF2071F193E0E92EF12CD12C33
:1027C000173060F597014AA169A1888199810E941B
:1027D0000E0B96014AA169A1888199810E940E0B76
:1027E0001F5FEECF0597F9F285E090E09C878B871D
:1027F0001FC01CA21BA210E000E02BE030E04AA1A9
:1028000069A1888199810E94880C83E090E09C876F
:102810008B87C9CF82E0E82EF12CD1CF8BA19CA170
:1028200025E030E08730910569F101969CA38BA3E8
:10283000DF91CF911F910F91FF90EF90DF90CF909C
:1028400008958430910508F5019708F188819981F0
:1028500022E030E0F11002C023E030E04AA169A19B
:102860000E940E0B21E02C2530E04AA169A188814D
:1028700099810E940E0B8BA19CA187309105A9F62E
:1028800026E030E03C872B87D0CF059739F41CA297
:102890001BA283E090E09C878B87D8CF86E090E0F6
:1028A000A5CFCF92DF92FF920F931F93CF93DF9329
:1028B000EC01F62E8B859C85442309F484C083307B
:1028C000910570F0039751F185E090E09C878B872C
:1028D000DF91CF911F910F91FF90DF90CF900895DE
:1028E0001CA21BA2CE010E946D0CFF2099F04B8D03
:1028F00011E0412741956F857889888199810E94EF
:102900009B074B8D4127419569897A8988819981F7
:102910000E949B0783E090E09C878B87CE010E94FA
:102920006D0CCE010E94F70E09891A898F8598894E
:10293000801B910B97FD01966C01D594C7948BA1D8
:102940009CA1080F191FC816D9060CF4BDCF0F5F44
:102950001F4F6F8578898BA19CA19B01281B390B88
:102960000217130744F44B8D4195B8018881998172
:102970000E949B07ECCF01969CA38BA3FF2009F438
:10298000A7CFC816D9060CF4A3CF4B8D11E0412771
:102990004195681B790B888199810E949B074B8D1B
:1029A0004127419569897A898BA19CA1680F791F7C
:1029B00088819981DF91CF911F910F91FF90DF90D6
:1029C000CF900C949B0783309105D1F1A0F501972E
:1029D000A0F18F85988929893A89821B930B97FDED
:1029E0000196959587959CA38BA3CE010E946D0CB3
:1029F000CE010E94F70EFF20D9F04B8D11E0412748
:102A000041956F8578898BA19CA1681B790B888182
:102A100099810E949B074B8D4127419569897A894D
:102A20008BA19CA1680F791F888199810E949B07C7
:102A300083E090E04BCF059761F286E090E046CFCF
:102A40008BA19CA197FDF9CF4B8D41956F8578891E
:102A5000681B790B888199810E949B074B8D41955A
:102A600069897A898BA19CA1680F791F88819981D6
:102A70000E949B078BA19CA101979CA38BA3FF2085
:102A800009F426CF97FD24CF4B8D11E041274195C6
:102A90006F8578897ECF8F929F92AF92BF92CF92AF
:102AA000DF92EF92FF920F931F93CF93DF93EC018E
:102AB000F62E8B859C85442309F4E0C08E010B5CC7
:102AC0001F4F35E0C32ED12C82309105E9F050F034
:102AD0008330910509F441C0049709F4A8C085E04A
:102AE00090E00FC0BE016B5C7F4FCE010E94840E50
:102AF000811103C086E090E004C01FAA1EAA83E0F3
:102B000090E09C878B870DC01DAA8EA58823B1F00D
:102B1000DC86CB868B859C852DA9211116C0059757
:102B200099F7DF91CF911F910F91FF90EF90DF9078
:102B3000CF90BF90AF909F908F900895B801CE0135
:102B40000E94400E8111E6CFE3CF059751F31FAAF3
:102B50001EAA83E090E09C878B878DA9882329F1AA
:102B600021E02F2530E04AA169A1888199810E9446
:102B70000E0B888199816B8D2AA93BA94EA95FA96B
:102B8000662301F1BA016F5F7F4F7FAB6EAB240FFD
:102B9000351FF90140814095FF20F1F069A1F8E06F
:102BA0006F9FB00111240E949B072DA98EA99FA998
:102BB0002817190609F0B5CF8EA5811115C082E03E
:102BC00090E09FCFBA016F5F7F4F7FAB6EAB240F5A
:102BD000351FF9014081E0CF6AA128E0629FB00172
:102BE0001124695F7F4FDFCF2F853889FF20B1F037
:102BF0008D859E85A901481B590BCA01019629A103
:102C000058E0259F8019910911249FAB8EAB1816AF
:102C100019060CF064CF84E090E073CF8AA1E8E05D
:102C20008E9FC00111240796821B930BEECF21E0EB
:102C3000262730E04AA169A1888199810E940E0B64
:102C4000888199814B8D4195FF2081F069A1F8E041
:102C50006F9FB00111240E949B078EA99FA9019725
:102C60009FAB8EAB892B09F05CCF39CF6AA128E0EE
:102C7000629FB0011124695F7F4FEDCF84309105D1
:102C800039F0059709F036CF84E090E09C878B8778
:102C900021E02F2530E04AA169A1888199810E9415
:102CA0000E0B888199814B8D4195FF2009F445C019
:102CB00069A138E0639FB00111240E949B070AA11B
:102CC00010E0A9A0B12C6801CA18DB088FEFC81A60
:102CD000D80A23E0CC0CDD1C2A95E1F78C8D9D8D64
:102CE000009721F08C159D0508F46C010F5F1F4FB4
:102CF00083E0000F111F8A95E1F793E0AA0CBB1C3B
:102D00009A95E1F7FF2021F145017401EA18FB08CB
:102D100080169106DCF5682D888199810E944F0507
:102D200090E02B8D222389F02FEF30E0821793075C
:102D300069F5EFEF8E1A9E0AE8CF6AA158E0659F09
:102D4000B0011124695F7F4FB8CF30E020E0EECFB3
:102D500001501109F12CE12C0A151B05BCF0602F64
:102D6000888199810E944F0590E02B8D222359F094
:102D70002FEF30E08217930749F401501109FFEF5C
:102D8000EF1AFF0AE9CF30E020E0F4CFEC14FD04A5
:102D900008F0B0CEC6CE2F923F924F925F926F92C4
:102DA0007F928F929F92AF92BF92CF92DF92EF92DB
:102DB000FF920F931F93CF93DF93CDB7DEB72D977D
:102DC0000FB6F894DEBF0FBECDBF9A8389837D8393
:102DD0006C83DC019396ED91FC91949796968C917F
:102DE000882311F073A762A7A981BA8196968C9166
:102DF000882311F010861782A981BA8196968C914A
:102E0000882311F012861186A981BA8196968C9139
:102E1000882341F081E090E0978B868B118E108E95
:102E200014861386E981FA813496FF83EE8306E0E7
:102E300010E0E5E06E2E712CF3E04F2E512C50E0A7
:102E400040E06AE070E08E819F810E94290D212C74
:102E50001B82A981BA8196968C919697281610F0BC
:102E60000C94AC1F9396ED91FC9122E4229EE00D10
:102E7000F11D1124FD87EC8710A28385948586308F
:102E8000910511F40C94AA1F059701F18FB7F894DE
:102E900040912C0150912D0160912E0170912F01D4
:102EA0008FBFEC85FD8583819481A581B681481B08
:102EB000590B6A0B7B0B87819085B0E0A0E0481727
:102EC00059076A077B0710F580E099C18FB7F8941E
:102ED00040912C0150912D0160912E0170912F0194
:102EE0008FBFEC85FD8583819481A581B681481BC8
:102EF000590B6A0B7B0B81859285B0E0A0E04817E7
:102F000059076A077B0708F0C1CFDECFAC85BD85C6
:102F100012969C909110D8CF2FB7F89480912C01E5
:102F200090912D01A0912E01B0912F012FBFEC8522
:102F3000FD8583839483A583B68381E080A3A2A4C7
:102F4000B3A4A114B10409F451C1838594850097F9
:102F500009F433C0069709F449C1AC85BD855A967A
:102F60003C905A97332009F4F8C05696ED91FC91A5
:102F70003197EC31F10508F073C1EF53F84E0C9422
:102F8000F023D718E018041907190E19E01D1119BC
:102F9000871A521B951CDF1B1F1D5E1F651F6F1FAD
:102FA000681F781F711F7A1F811F841F8B1F8E1F40
:102FB000961F991F9D1FA01FA71FAC85BD859D96BD
:102FC000BC92AE929C979296EC90B8E0EB9E70010A
:102FD0001124F70137967F01AC85BD8591968C91C0
:102FE000B8E08B9FE018F1081124EFEFEE1AFE0A0B
:102FF000D12CC12CD5016D915D016623C1F0EC850A
:10300000FD8522A933A970E041A9CF010E94870D57
:1030100090E0C80ED91E892B69F3D5018C918823C5
:1030200049F3EC85FD8584A9C80ED11CE3CFAC859E
:10303000BD851E96DC92CE921D9754968D919C91E3
:103040008130910509F455C028F0029771F1992457
:1030500093941DC0EC85FD8582A190E0019673E0FC
:10306000880F991F7A95E1F79C0121503109308B27
:103070002787EC14FD0490F481A1F8E08F9FC00134
:103080001124AC85BD8552969C938E93519781E017
:103090009826EC85FD85938A828F5FCF8C199D09D8
:1030A000EC85FD85928B818BD2CFAC85BD859196C9
:1030B0008C91B8E08B9FC0011124EC85FD85928B2B
:1030C000818BEC14FD0468F482A1F8E08F9FC001AD
:1030D00011240796AC85BD8550969C938E931F97BF
:1030E000D6CF0197C80ED91EEC85FD85D08AC7863C
:1030F000AECFAC85BD8591962C91B8E02B9F900109
:103100001124EC14FD0498F4EC85FD8582A1F8E00F
:103110008F9FC00111240796AC85BD8550969C9366
:103120008E931F9752963C932E935197B0CFEC18E5
:10313000FD08F694E794E20EF31EEC85FD85F28A15
:10314000E18AF1E0CF1AD108CE0CDF1CAC85BD8539
:103150005096DC92CE921F977ACFAC85BD8558965B
:10316000ED91FC913197EC31F10508F079C0E5540F
:10317000F74E0C94F023C41BE018041907190E191C
:10318000E01D1119871A521B951CDF1B1F1D5E1FA6
:10319000651F6F1F681F781F711F7A1F811F841F93
:1031A0008B1F8E1F961F991F9D1FA01FA71F8C8509
:1031B0009D850E94F70EEC85FD857486638606C0AA
:1031C000432D61E08C859D850E940C10EC85FD856A
:1031D000828D23853485882329F081E025303105CF
:1031E00009F480E0AC85BD855A968C9381E0EC852E
:1031F000FD85238534852630310509F065CEFB81B8
:10320000F82BFB83239425CE432D60E0DBCF432DA9
:1032100061E08C859D850E944B15D8CF432D60E0E1
:10322000F8CFEC85FD8583859485332009F4EAC0C9
:103230007F01F5E3EF0EF11C82309105A1F130F032
:10324000039709F45BC0AC85BD8566C26C857D853E
:103250006B5C7F4F8C859D850E94840E811103C01D
:10326000AC85BD85CDC68C859D850E946D0CEC8599
:10327000FD8517AA16AA81A1F8E08F9FC00111242D
:10328000AC85BD8594969C938E9393971F968D9154
:103290009C91509799969C938E9398971C965C92CC
:1032A0004E921B9793CFEC85FD8515AA86A58823A2
:1032B00081F0AC85BD851C967C926E921B97EC8547
:1032C000FD858385948525A921110BC0059759F7A4
:1032D0007DCFB7018C859D850E94400E8111EFCF77
:1032E000E8CF059709F472CFAC85BD85D7961C92BF
:1032F0001E92D6971C965C924E921B97EC85FD858C
:1033000063A174A180A591A502A8F3A9E02DAC85C5
:10331000BD85D6962D913C91D797E20FF31F408142
:103320006817790751F48D919C9111975B962C91B8
:10333000211140950E949B073ECF411135C0AC85BD
:10334000BD8594969C938E939397EC85FD8583A180
:1033500094A120A531A582179307C1F426A937A906
:1033600041A1F8E04F9FA0011124AC85BD85949642
:103370005C934E9393972F5F3F4FD7963C932E933A
:10338000D697019799969C938E939897EC85FD8597
:1033900025A986A997A92817190609F017CF82E051
:1033A00090E09487838712CFEC85FD85438D41950E
:1033B000808191810E949B07AC85BD8593966D911C
:1033C0007C9194976F5F7F4F94967C936E939397C5
:1033D0008D919C9111975B96EC915B97D2962D9174
:1033E0003C91D397D6964D915C91240F351FEE23D7
:1033F00031F0F901408140950E949B07A6CFD90189
:103400004C91FACF8130910508F42ACF8430910590
:1034100068F0059709F024CFEC85FD8587859089B4
:1034200091A780A794A383A354864386AC85BD85CA
:10343000CD90DC9011975B968C9188248A94912C86
:10344000811102C0912C812CEC85FD85A188B28868
:10345000AC85BD859396ED90FC906E2DC6010E94C3
:103460004F05EC85FD8520A531A58815190451F47B
:103470002A153B053CF0C901019791A780A734A309
:1034800023A3E6CF2F5F3F4F2A153B050CF4E8CE70
:10349000EC85FD8522A1F8E02F9F90011124295F82
:1034A0003F4FE216F3063CF4B7016F5F7F4F482FA2
:1034B000C6010E949B07AC85BD855B964C915B97CE
:1034C000419593966D917C9194978D919C910E94DA
:1034D0009B07EC85FD8523A134A12F5F3F4F34A3CB
:1034E00023A382A190E0019643E0880F991F4A959B
:1034F000E1F72817390709F069CE80A591A59C014D
:103500002150310931A720A794A383A35FCEEC8576
:10351000FD8583859485332009F467C08430910547
:1035200008F042C0019708F443C08C859D850E9435
:103530006D0C8C859D850E94F70EEC85FD8591A014
:10354000990C990C990C88248394AC85BD8593962D
:10355000ED90FC90949792968C91929790E00196C2
:1035600023E0880F991F2A95E1F7A92CB12CA81602
:10357000B90674F5CD90DC90692DC6010E944F0507
:10358000482F50E087E090E08E199F093320D9F052
:1035900002C0559547958A95E2F7B501C6010E948C
:1035A0009B0738249394D1CF059709F4BECF03CE5F
:1035B000AC85BD8594961C921E9293971C965C9246
:1035C0004E921B97B2CF01C0440F8A95EAF7E5CF20
:1035D000BFEFEB1AFB0AEC85FD85F4A2E3A2F8E04D
:1035E000EF16F10409F0F2CD2ECE8430910598F556
:1035F0000197A0F1AC85BD8591969C90990C990C92
:10360000990C8824839433243394EC85FD85E3A0BE
:10361000F4A082A190E00196B3E0880F991FBA95BB
:10362000E1F7A92CB12CA816B9065CF5C080D180B1
:10363000692DC6010E944F05482F50E08820D9F01F
:1036400001C0440FEA94EAF7B501C6010E949B0746
:1036500083249394DACF059709F002CEE1E0F0E0FD
:10366000AC85BD859496FC93EE9393971C965C92E3
:103670004E921B97BFCF02C055954795EA94E2F74B
:10368000E3CFFFEFEF1AFF0AAC85BD859496FC925D
:10369000EE929397B8E0EB16F10409F097CDEC8524
:1036A000FD85BCC2EC85FD8583859485332009F4B6
:1036B0005AC08430910500F58230910500F50097DD
:1036C00081F1019709F0BFCDAC85BD8593966D91D1
:1036D0007C919497CB01019694969C938E939397AB
:1036E000CD010E94180D8C859D850E94F70EEC85FA
:1036F000FD85548643866ACD059709F0A4CDAC8537
:10370000BD8593966D917C91949798968D919C919F
:10371000999786179707ECF41C967C926E921B97EC
:1037200055CDAC85BD8594961C921E9293975F965D
:103730008C915F9790E099969C938E939897CD018A
:103740000E946D0C21E030E0EC85FD8534872387F5
:103750003DCDCB010196EC85FD8594A383A3CF01DC
:103760000E94180D33CD8430910598F40197A0F094
:10377000EC85FD8563A174A1CB01019777FFEBCFA9
:1037800060A5CF010E94180D8C859D850E946D0C4F
:1037900067CD059709F064CDEC85FD85678D862F93
:1037A00090E091A780A794A383A3CF010E94180D56
:1037B0008C859D850E94F70EAC85BD856FCDEC850F
:1037C000FD85838594858230910509F45DC048F4B8
:1037D000009769F00197B9F031102EC186E090E0B2
:1037E000E6C08330910509F492C00597A9F7AC852E
:1037F000BD8594961C921E929397E1E0F0E01C9692
:10380000FC93EE931B97AC85BD8593968D919C910F
:103810009497019694969C938E9393979196EC909F
:10382000B8E0EB9E70011124DD24D394EC85FD8576
:1038300023A134A182A190E00196A3E0880F991FF3
:10384000AA95E1F7E816F90694F4C7018370992761
:103850008217930744F4438D4D254195B70180812C
:1038600091810E949B07FFEFEF1AFF0ADFCF82E0F2
:1038700090E02430310509F0A9CCAC85BD851C96BB
:103880009C938E931B97A2CC8C859D850E946D0C7A
:10389000332021F08C859D850E94F70EEC85FD85F7
:1038A00083A194A1019794A383A3E1A0F8E0EF9EE4
:1038B00070011124DD24D394AC85BD8593962D91A0
:1038C0003C91949792968C91929790E00196F3E0B8
:1038D000880F991FFA95E1F7E816F906A4F4C701D5
:1038E000837099278217930754F45B964C915B97EA
:1038F0004D254195B7018D919C910E949B07BFEF8B
:10390000EB1AFB0AD9CF232B09F060CCF0CE8C85C3
:103910009D850E946D0C332009F412C18C859D8514
:103920000E94F70E85E090E0A8CFAC85BD851B9680
:103930008D919C918230910509F43CC038F0833020
:10394000910509F46EC0059709F0F8C0EC85FD8576
:10395000E1A0F8E0EF9E70011124AC85BD85929640
:103960008C91929790E00196E3E0880F991FEA9579
:10397000E1F7E816F906CCF45B96BC905B97CD9026
:10398000DC906E2DC6010E944F05B110809545E573
:10399000E0FE4AEA482BB1104095B701C6010E94EB
:1039A0009B07BFEFEB1AFB0AD8CF82E090E0EC85D3
:1039B000FD85F7CC8C859D850E946D0C332021F010
:1039C0008C859D850E94F70EAC85BD859196EC9007
:1039D000B8E0EB9E70011124EC85FD8582A190E09A
:1039E000019673E0880F991F7A95E1F7E816F906BA
:1039F0000CF0E2CEB38CC080D1806E2DC6010E9447
:103A00004F05B11080954AEAE0FE45E5482BB1101C
:103A10004095B701C6010E949B07FFEFEF1AFF0A0E
:103A2000DBCF8C859D850E946D0C332009F4D6CEAA
:103A30008C859D850E94F70E85E090E0B8CFEC85DF
:103A4000FD85838594858430910508F07CC00197BD
:103A500008F47CC0EC85FD8514A213A20E943523D6
:103A60004B015C010E943523688779878A879B8791
:103A7000AC85BD859396CD90DC90BFEFCB1ADB0A69
:103A8000EC85FD85D4A2C3A2C501B4012BE030E0D2
:103A900040E050E00E948D2370E09B01225E3E4F8B
:103AA0007901D901BC90688579858A859B8528E054
:103AB00030E040E050E00E948D238B2D90E0062EF8
:103AC00002C0959587950A94E2F780FF05C0B8E893
:103AD000CB16B3E1DB0614F281E090E001C0880F61
:103AE0006A95EAF7B82AF701B0828C859D850E9415
:103AF000F70EAC85BD8594961C921E929397919675
:103B0000BC90BB0CBB0CBB0CEC85FD8582A190E08E
:103B1000019663E0880F991F6A95E1F7CB2CD12CB1
:103B2000C816D90614F1EEE1F1E081918F3F09F05A
:103B30004DCB26E231E02E173F07B9F73110F2CE18
:103B400086E090E09ACE059709F046CEEEE1F1E0EE
:103B5000119229E231E02E173F07D1F7AC85BD85E0
:103B60001C965C924E921B9775CFAC85BD85ED90EF
:103B7000FC906B2DC7010E944F05AC85BD859396C7
:103B8000ED91FC91E25EFE4F4081311001C0409505
:103B90004823B601C7010E949B07EC85FD8583A1E0
:103BA00094A101968B30910521F094A383A3B39443
:103BB000ABCFAC85BD8594961C921E929397F7CFA0
:103BC000AC85BD851B968D919C913110F9C18430D7
:103BD000910508F0F1C1019708F0DAC08C859D8548
:103BE0000E94A205AC85BD8596968D919C91979774
:103BF00098962D913C9199978217930744F4979644
:103C00003C932E93969799969C938E939897EC85D8
:103C1000FD8584AD95AD892B09F0AAC01487038773
:103C2000D5CAEC85FD8515A282A190E0019653E0EE
:103C3000880F991F5A95E1F794A383A3548643866E
:103C40008C859D850E94F70EAC85BD8593968D91E0
:103C50009C919497019794969C938E939397F12CB3
:103C6000EC85FD8526AD63A174A1F21608F03CC079
:103C7000EF2DF0E06E0F7F1FAC85BD8592968C9185
:103C8000929790E0019643E0880F991F4A95E1F7DB
:103C9000681779072CF591968C91B8E08B9FC0013D
:103CA000112468177907E4F0AC85BD858D919C914E
:103CB000119795964C9195974203A00111244E0FB0
:103CC0005F1FDA96ED91FC91DB97E40FF51F5B9691
:103CD0002C91222339F0E4914E2F40950E949B07AE
:103CE000F394BECF4491FACF7B01B1E0EB1AF10817
:103CF000EC85FD8580A591A5E816F9065CF0438D5D
:103D00004195B701808191810E949B07F1E0EF1AF4
:103D1000F108EECFAC85BD8595968C9195978F5F18
:103D200095968C939597082E000C990BFD01E05CFD
:103D3000FF4F20812817190609F014F495961C925C
:103D4000EC85FD8581A1F8E08F9FC0011124AC8531
:103D5000BD85DE962C91DE97821B91090197939683
:103D60002D913C9194972817390709F02FCAD4CC8C
:103D7000AC85BD8591968C91B8E08B9FC0011124D4
:103D80000197EC85FD8594A383A315A254864386F1
:103D90008C859D850E94F70EAC85BD8593968D918F
:103DA0009C919497019694969C938E939397F12C63
:103DB000EC85FD8527AD63A174A1822F90E0F216FA
:103DC000B8F54F2D50E0641B750B82A190E0019671
:103DD00033E0880F991F3A95E1F76817790724F5C2
:103DE00081A1F8E08F9FC001112468177907E4F0E2
:103DF000AC85BD858D919C91119795963C91959739
:103E0000320390011124420F531FDC96ED91FC9177
:103E1000DD97E40FF51F5B962C91222339F0E49196
:103E20004E2F40950E949B07F394C2CF4491FACF46
:103E30007B01E81AF90AEC85FD8580A591A5E816B5
:103E4000F9065CF0438D4195B701808191810E9414
:103E50009B07F1E0EF1AF108EECFAC85BD85959692
:103E60008C9195978F5F95968C939597082E000C63
:103E7000990BFD01EF5BFF4F20812817190609F010
:103E800014F495961C92EC85FD8582A1F8E08F9F35
:103E900090011124295F3F4FAC85BD85DF968C9141
:103EA000DF97820F932F911D019693962D913C9150
:103EB00094972817390709F089C9A2C0432D60E0FB
:103EC0008C859D850E944C0F81C9432D61E0F8CF00
:103ED00041E0632D8C859D850E94421177C940E0A9
:103EE000F8CF41E0632D8C859D850E9489106EC9B5
:103EF00040E0F8CF432D60E08C859D850E94DE1167
:103F000065C9432D61E0F8CF432D60E08C859D8528
:103F10000E9451145BC9432D61E0F8CF232D41E08D
:103F200061E08C859D850E94BE1350C9232D40E021
:103F3000F7CF232D41E060E0F4CF232D40E0FBCF0D
:103F4000432D61E08C859D850E94F5123FC9432D6C
:103F500060E0F8CF81E053C941E050E06AE070E0F2
:103F60008E819F810E94290D2B8121110C941F1796
:103F7000EC81FD8101900020E9F73197CF01AC8100
:103F8000BD818A1B9B0B2D960FB6F894DEBF0FBE2A
:103F9000CDBFDF91CF911F910F91FF90EF90DF90F8
:103FA000CF90BF90AF909F908F907F906F905F90D9
:103FB0004F903F902F900895059709F40FCE6FCB47
:103FC0008430910510F5019708F03ACE8C859D85D7
:103FD0000E94A205EC85FD8586A197A120A531A5AB
:103FE0008217930724F437A326A391A780A7AC8553
:103FF000BD85DA968D919C91DB97892B09F011CEC6
:104000001C961C930E931B97E1C8059709F418CED4
:10401000D2C81F920F920FB60F9211242F933F9385
:104020008F939F93AF93BF9380912C0190912D011B
:10403000A0912E01B0912F0130912B0123E0230F8D
:104040002D3758F50196A11DB11D20932B018093AA
:104050002C0190932D01A0932E01B0932F018091FC
:10406000300190913101A0913201B091330101965C
:10407000A11DB11D8093300190933101A0933201B5
:10408000B0933301BF91AF919F918F913F912F9149
:104090000F900FBE0F901F90189526E8230F0296E1
:1040A000A11DB11DD2CF789484B5826084BD84B542
:1040B000816084BD85B5826085BD85B5816085BD23
:1040C00080916E00816080936E00109281008091DB
:1040D0008100826080938100809181008160809363
:1040E0008100809180008160809380008091B10088
:1040F00084608093B1008091B00081608093B000B3
:1041000080917A00846080937A0080917A00826046
:1041100080937A0080917A00816080937A00809108
:104120007A00806880937A001092C10080914101EA
:10413000882309F4DDC0CFB7F89480913401811150
:1041400027C0EEEAF0E08491EAE9F0E09491E82FEC
:10415000F0E0EE0FFF1FEA57FF4FA591B491EC91ED
:10416000E92321F461E08AE00E94720361E08AE0C1
:104170000E94BE038CB580618CBD8CB580648CBD03
:1041800061E08DE00E94BE0361E08BE00E94BE030F
:10419000809134018F5F80933401CFBF61E08091C3
:1041A00040010E94BE0361E0809140010E947203C1
:1041B000109248011092470110924A011092490151
:1041C000C091420129E0C29FC00111240E94F62340
:1041D00090934401809343018C2F90E0880F991FA6
:1041E0000E94F623909346018093450180914D01F2
:1041F00090914E01885B904051F088EB90E0909355
:104200004E0180934D0189E391E00E94140450E037
:1042100040E063E070E089E391E00E94290D47E00F
:1042200050E061E070E089E391E00E94290D47E0F1
:1042300050E062E070E089E391E00E94290D50E0D7
:1042400040E064E070E089E391E00E94290D409134
:104250004201415060E089E391E00E94E60A50E0AB
:1042600040E070E060E089E391E00E94290DC1E048
:10427000C0935B0184E490E00E94F623FC0181E09E
:1042800090E09183808314821582168217821086B3
:1042900086E090E096878587178E168E10A212AA68
:1042A00011AA13AA15AA14AAC6AB13AE12AE15AE64
:1042B00014AE17AE16AE3296F0935901E093580142
:1042C000C0E0D2E409E311E080915B01E091580184
:1042D000F0915901C817B8F4CF01CD9F800D911D01
:1042E0001124FC01118300830E94360DCF5FECCFB7
:1042F00061E080913E010E94BE0361E080913F0138
:104300000E94BE034BCF813041F490915A018FEF50
:10431000890F891710F411A282A380E092E42AE0A9
:1043200030E040915B01841758F4DF01899FA00DB4
:10433000B11D112418963C932E9317978F5FF1CFE0
:10434000878190854AE0489F9001499F300D112454
:1043500080E092E440915B01841758F4DF01899F6B
:10436000A00DB11D11241A963C932E9319978F5FBF
:10437000F1CFC0E012E4D1E0E0915801F091590191
:1043800080915B01C81758F4CF01C19F800D911D2A
:104390001124FC01D4AB0E94360DCF5FEDCF80E03D
:1043A00092E420915B01821758F4DF01899FA00DF0
:1043B000B11D11245D961C921E925C978F5FF1CF08
:1043C00080E022E490915B01DF01891788F080E0B2
:1043D00021E030E08917B1F057963C932E93569721
:1043E00059961C921E9258978F5FAE5BBF4FF2CFCB
:1043F000829FA00DB11D112455961C921E925497B8
:104400008F5FE0CF13A612A680E092E420915B01BB
:10441000821748F4DF01899FA00DB11D11245B961E
:104420001C928F5FF3CFC0E0D2E480915B01C8178C
:1044300068F4809158019091590167E0CD9F800DFB
:10444000911D11240E94180DCF5FEFCF80914D0177
:1044500090914E01892B51F088EB90E090934E01A2
:1044600080934D0189E391E00E94140460E08EE0A6
:104470000E94BE03C0E0D0E044E050E068E171E09B
:1044800085E391E00E94540D0E94EF034B015C0113
:1044900088EEC82E83E0D82EE12CF12C0E94EF0389
:1044A000681979098A099B09683E7340810591055D
:1044B000A8F3F1E0CF1AD108E108F10828EE820E46
:1044C00023E0921EA11CB11CC114D104E104F1042B
:1044D00029F7209789F20E940000CECFE5E3F1E0B2
:1044E000138212828EE091E091838083118612867E
:1044F00084E0838781E084878587868B2AE030E0AB
:104500003583248317821086168285A308950F931E
:104510001F93CF93DF938EE091E0909336018093C9
:104520003501C0915801D0915901209759F1FE01F0
:1045300032972081318142E4429FC001439F900D18
:104540001124C80FD91F80915801909159018C17DF
:104550009D07A1F0C254D1098FA598A9009739F001
:10456000FC01048115810E949224C801F7CF8AA919
:104570009BA9009741F30E949224E5CFCE010297B8
:104580000E94922480914101882399F09FB7F8946A
:1045900080913401882319F08150809334018091F7
:1045A0003401811105C08CB58F7B8CBD10922A011E
:1045B0009FBF80914301909144010E949224809179
:1045C000450190914601DF91CF911F910F910C947D
:1045D00092248F929F92AF92BF92CF92DF92EF92EE
:1045E000FF92CF93DF93EC01688179818A819B816F
:1045F000611571058105910521F464E279ED8BE582
:1046000097E02DE133EF41E050E00E948D23490116
:104610005A019B01AC01A7EAB1E40E94AC236B01F3
:104620007C01ACEEB4EFA50194010E94BA23C60E42
:10463000D71EE81EF91EF7FE06C081E0C81AD10891
:10464000E10880E8F80AC882D982EA82FB82C701C1
:10465000B6019F77DF91CF91FF90EF90DF90CF90E1
:10466000BF90AF909F908F9008958F929F92AF923E
:10467000BF92CF92DF92EF92FF9260910001709112
:10468000010180910201909103016115710581057D
:10469000910521F464E279ED8BE597E02DE133EFAC
:1046A00041E050E00E948D2349015A019B01AC0179
:1046B000A7EAB1E40E94AC236B017C01ACEEB4EF3D
:1046C000A50194010E94BA23C60ED71EE81EF91E4A
:1046D000F7FE06C081E0C81AD108E10880E8F80AB0
:1046E000C0920001D0920101E0920201F092030118
:1046F000C701B6019F77FF90EF90DF90CF90BF90FA
:10470000AF909F908F900895609300017093010186
:1047100080930201909303010895052E97FB1EF4E8
:1047200000940E94A42357FD07D00E94BF2307FCDA
:1047300003D04EF40C94A4235095409530952195C8
:104740003F4F4F4F5F4F08959095809570956195BD
:104750007F4F8F4F9F4F08950E94E123A59F900D9B
:10476000B49F900DA49F800D911D11240895B7FF53
:104770000C94AC230E94AC23821B930B0895A1E2FE
:104780001A2EAA1BBB1BFD010DC0AA1FBB1FEE1FCB
:10479000FF1FA217B307E407F50720F0A21BB30B16
:1047A000E40BF50B661F771F881F991F1A9469F792
:1047B00060957095809590959B01AC01BD01CF01EE
:1047C0000895A29FB001B39FC001A39F700D811DEA
:1047D0001124911DB29F700D811D1124911D08950A
:1047E000EE0FFF1F0590F491E02D09940F931F9396
:1047F000CF93DF938230910510F482E090E0E09156
:104800005E01F0915F0130E020E0B0E0A0E0309781
:1048100099F42115310509F44AC0281B390B2430BD
:104820003105D8F58A819B816115710589F1FB01FC
:1048300093838283FE0111C04081518102811381E3
:1048400048175907E0F04817590799F4109761F095
:1048500012960C93129713961C933296CF01DF9108
:10486000CF911F910F91089500935E0110935F0106
:10487000F4CF2115310551F04217530738F0A90143
:10488000DB019A01BD01DF01F801C1CFEF01F9CFD2
:1048900090935F0180935E01CDCFFE01E20FF31F85
:1048A000819391932250310939832883D7CF209166
:1048B0005C0130915D01232B41F420910601309180
:1048C000070130935D0120935C0120910401309138
:1048D00005012115310541F42DB73EB7409108017E
:1048E00050910901241B350BE0915C01F0915D01B1
:1048F000E217F307A0F42E1B3F0B2817390778F0B7
:10490000AC014E5F5F4F2417350748F04E0F5F1F15
:1049100050935D0140935C01819391939FCFF0E0B0
:10492000E0E09CCFCF93DF930097E9F0FC01329752
:1049300013821282A0915E01B0915F01ED0130E01F
:1049400020E01097A1F420813181820F931F2091E4
:104950005C0130915D012817390709F061C0F093BF
:104960005D01E0935C01DF91CF910895EA01CE17DC
:10497000DF07E8F54A815B819E0141155105B1F7DA
:10498000E901FB83EA8349915991C40FD51FEC17C4
:10499000FD0761F4808191810296840F951FE901E2
:1049A00099838883828193819B838A83F0E0E0E00E
:1049B00012968D919C9113970097B9F52D913C918A
:1049C0001197CD010296820F931F20915C013091C7
:1049D0005D012817390739F6309751F510925F01BC
:1049E00010925E01B0935D01A0935C01BCCFD383B4
:1049F000C28340815181840F951FC817D90761F484
:104A00004E5F5F4F88819981480F591F51834083C2
:104A10008A819B81938382832115310509F0B0CF70
:104A2000F0935F01E0935E019ECFFD01DC01C0CFFA
:104A300013821282D7CFFB01DC0102C001900D92DC
:104A400041505040D8F70895DC0101C06D934150AA
:104A50005040E0F7089512E0C2EFD2E004C0FE013A
:104A60000E94F0232196C33FD107C9F7F894FFCFE6
:104A700001000000000060018000000000005605F9
:0E4A8000540D6F056E05CB16415349460000DC
:107E0000112484B714BE81FFF0D085E080938100F7
:107E100082E08093C00088E18093C10086E0809377
:107E2000C20080E18093C4008EE0C9D0259A86E02C
:107E300020E33CEF91E0309385002093840096BBD3
:107E4000B09BFECF1D9AA8958150A9F7CC24DD24C4
:107E500088248394B5E0AB2EA1E19A2EF3E0BF2EE7
:107E6000A2D0813461F49FD0082FAFD0023811F036
:107E7000013811F484E001C083E08DD089C08234E0
:107E800011F484E103C0853419F485E0A6D080C0E4
:107E9000853579F488D0E82EFF2485D0082F10E0AE
:107EA000102F00270E291F29000F111F8ED06801E7
:107EB0006FC0863521F484E090D080E0DECF843638
:107EC00009F040C070D06FD0082F6DD080E0C81688
:107ED00080E7D80618F4F601B7BEE895C0E0D1E017
:107EE00062D089930C17E1F7F0E0CF16F0E7DF06D8
:107EF00018F0F601B7BEE89568D007B600FCFDCFD4
:107F0000A601A0E0B1E02C9130E011968C91119780
:107F100090E0982F8827822B932B1296FA010C0160
:107F200087BEE89511244E5F5F4FF1E0A038BF0790
:107F300051F7F601A7BEE89507B600FCFDCF97BE46
:107F4000E89526C08437B1F42ED02DD0F82E2BD052
:107F50003CD0F601EF2C8F010F5F1F4F84911BD097
:107F6000EA94F801C1F70894C11CD11CFA94CF0C13
:107F7000D11C0EC0853739F428D08EE10CD085E9AC
:107F80000AD08FE07ACF813511F488E018D01DD067
:107F900080E101D065CF982F8091C00085FFFCCF94
:107FA0009093C60008958091C00087FFFCCF809118
:107FB000C00084FD01C0A8958091C6000895E0E648
:107FC000F0E098E1908380830895EDDF803219F02E
:107FD00088E0F5DFFFCF84E1DECF1F93182FE3DFCA
:107FE0001150E9F7F2DF1F91089580E0E8DFEE27F6
:047FF000FF270994CA
:027FFE00040479
:0400000300007E007B
:00000001FF
